:1000000012C019C018C017C016C015C014C013C044
:1000100012C011C010C00FC00EC00DC00CC00BC06C
:100020000AC009C008C011241FBECFE5D4E0DEBF5E
:10003000CDBF02D079C0E4CF3E9A379A86B18760AF
:1000400086B98EB588618EBD8FB582608FBD8FE118
:100050009EE497BD86BD8FB5806A8FBD87B38660ED
:1000600087BB8EB581608EBD8CED95E09BBD8ABD52
:10007000EAE0F0E0389A369A3699FECF84B195B12D
:100080002AB53BB52835324070F02AB53BB5253C42
:10009000394048F42AB53BB59250BF0125D0260F10
:1000A000371F3BBD2ABD3898369A3699FECF24B10A
:1000B00035B1ACE6B7E02CD0DC01CB012AE0B69537
:1000C000A795979587952A95D1F7BC01685A7D4FDA
:1000D00079BD68BD8FE39DE023E0815090402040D2
:1000E000E1F700C00000C6CFAA1BBB1B51E107C04F
:1000F000AA1FBB1FA617B70710F0A61BB70B881FB8
:10010000991F5A95A9F780959095BC01CD01089546
:10011000A29FB001B39FC001A39F01D0B29F700DF9
:0C012000811D1124911D0895F894FFCF5B
:00000001FF
